:100000000C9434000C9451000C9451000C94510049
:100010000C945F010C9451000C9451000C9451000D
:100020000C9451000C9451000C9451000C9451000C
:100030000C9451000C9451000C9451000C945100FC
:100040000C9451000C9451000C9403010C94510039
:100050000C9451000C9451000C9451000C945100DC
:100060000C9451000C94510011241FBECFEFD8E026
:10007000DEBFCDBF11E0A0E0B1E0E6E5F0E102C0F7
:1000800005900D92A033B107D9F721E0A0E3B1E0CC
:1000900001C01D92A134B207E1F70E9439040C940B
:1000A00029080C9400000F931F93CF93DF93CDB7D3
:1000B000DEB760970FB6F894DEBF0FBECDBF80E00D
:1000C0000E94F80120913001309131018091370177
:1000D000909138013F932F939F938F9383E091E00A
:1000E0009F938F931F9280E18F938E010F5F1F4F1D
:1000F0001F930F930E944A05C8010E944A020FB63F
:10010000F894DEBF0FBECDBF60960FB6F894DEBF89
:100110000FBECDBFDF91CF911F910F9108950F9327
:100120001F93CF93DF93CDB7DEB760970FB6F894E8
:10013000DEBF0FBECDBF80E40E94F80180913C017C
:100140008E010F5F1F4F90910101882349F080912C
:1001500002011F929F931F928F9382E191E008C04A
:10016000809102011F929F931F928F9381E291E0F1
:100170009F938F931F9280E18F931F930F930E9401
:100180004A050FB6F894DEBF0FBECDBFC8010E946E
:100190004A0260960FB6F894DEBF0FBECDBFDF9166
:1001A000CF911F910F91089520913701309138011F
:1001B0008091020190E02817390714F45B9A0BC074
:1001C00020913701309138018091020190E0281789
:1001D00039070CF05B9820913701309138018091FC
:1001E000010190E08217930714F45A9A0895209120
:1001F0003701309138018091010190E08217930717
:100200000CF05A9808951F920F920FB60F92112476
:100210002F933F934F935F936F937F938F939F930E
:10022000AF93BF93CF93EF93FF93C091C600CD32AE
:1002300011F0CB3259F4C0933D0181E090E09093EE
:10024000340180933301109232011AC08C2F0E9426
:100250003204882389F0E0913301F0913401E35CAA
:10026000FE4FC083809133019091340101969093A9
:1002700034018093330104C0109234011092330191
:100280008091330190913401049739F481E0809397
:1002900032011092340110923301FF91EF91CF910E
:1002A000BF91AF919F918F917F916F915F914F918E
:1002B0003F912F910F900FBE0F901F9018951F9296
:1002C0000F920FB60F9211242F933F934F935F938A
:1002D0006F937F938F939F93AF93BF93EF93FF930E
:1002E000CF93DF9300D0CDB7DEB71A821982BE015B
:1002F0006F5F7F4FCE0102960E94A20380913C0166
:10030000813019F48091010106C080913C01811176
:1003100007C08091020190E090933A0180933901E7
:1003200020E031E049E351E069818A810E94B30312
:1003300080913C01813091F48091390190913A0192
:100340008093010190910101809102018917D8F0F9
:10035000809102018F5F8093010115C080913C0163
:10036000811111C08091390190913A01809302016D
:100370009091020180910101981728F0809101016C
:1003800081508093020181E080933B010F900F9098
:10039000DF91CF91FF91EF91BF91AF919F918F919D
:1003A0007F916F915F914F913F912F910F900FBE71
:1003B0000F901F9018959BB19F709BB99BB1807F48
:1003C000892B8BB9299A299A29980895CF93C82FF8
:1003D00028980E94DB018C2F8295807F0E94DB0190
:1003E0008FE39FE10197F1F700C00000CF910895DE
:1003F00080580C94E601579A569A559A549A209A26
:10040000219A8FE59AEE0197F1F700C0000080E392
:100410000E94DB018FE19EE40197F1F700C000002C
:1004200080E30E94DB018FED91E00197F1F700C0BE
:10043000000080E30E94DB0180E20E94DB018FE389
:100440009FE10197F1F700C0000088E20E94E601F9
:100450008FE39FE10197F1F700C0000080EF0E9459
:10046000E6018FE39FE10197F1F700C000000895D6
:10047000CF93C82F289A0E94DB018C2F8295807F12
:100480000E94DB018FE39FE10197F1F700C00000BC
:10049000CF910895CF93DF93EC018991882319F0D0
:1004A0000E943802FACFDF91CF910895CF92DF9268
:1004B000EF92FF920F931F934115510521F40115FF
:1004C000110509F4A0C094EA9093BC009091BC007F
:1004D00097FFFCCF9091B900987F983009F068C0E1
:1004E000982F9E7F9093BB0094E89093BC009091CE
:1004F000BC0097FFFCCF9091B900987F983121F014
:10050000903209F055C051C0FB01460F571F64E8F7
:10051000E417F50791F091919093BB006093BC00B4
:100520009091BC0097FFFCCF9091B900987F9832D2
:1005300079F39033E9F590E338C0F901020F131F06
:1005400024E8E017F10779F091919093BB00209394
:10055000BC009091BC0097FFFCCF9091B900987FB0
:10056000983279F3E6CFC114D10409F44AC020E1EE
:1005700094EA9093BC009091BC0097FFFCCF9091BF
:10058000B900987F921314C081608093BB0084E807
:100590008093BC008091BC0087FFFCCF9091B90094
:1005A000987F903439F0983419F484E98093BC0032
:1005B000892F2FC0F70184EC91E0C916D10491F086
:1005C0008093BC009091BC0097FFFCCF9091B90044
:1005D000987F21E0C21AD108903551F79091BB0065
:1005E0009193EACF84E88093BC008091BC0087FFA0
:1005F000FCCF9091B900987F9835D1F68091BB00DF
:10060000808390E0D2CFC114D10411F028E0B0CFA4
:1006100080E01F910F91FF90EF90DF90CF900895B1
:10062000CF92DF92EF92FF920F931F93CF93DF93BE
:100630001F92CDB7DEB78EEE8983C12CD12CE12C71
:10064000F12C00E010E020E030E041E050E0BE019D
:100650006F5F7F4F80E90E9456020F90DF91CF912C
:100660001F910F91FF90EF90DF90CF900895CF9260
:10067000DF92EF92FF920F931F93CF93DF931F921E
:10068000CDB7DEB72AEA298322E0C22ED12C7C0125
:1006900000E010E020E030E041E050E0BE016F5F9C
:1006A0007F4F80E90E9456020F90DF91CF911F91FA
:1006B0000F91FF90EF90DF90CF900895CF92DF924F
:1006C000EF92FF920F931F93CF93DF9300D0CDB79C
:1006D000DEB71092B90089E48093B8008CEA898370
:1006E00082E08A83C12CD12CE12CF12C00E010E0B7
:1006F00020E030E042E050E0BE016F5F7F4F80E9D4
:100700000E9456020F900F90DF91CF911F910F9191
:10071000FF90EF90DF90CF9008951092B9008093F2
:10072000B8000895E8E6F0E0808182608083ECE61E
:10073000F0E0808182608083808184608083419A40
:10074000429A0895319904C021E0FB01208302C040
:10075000FB011082329904C021E0FC01208308953E
:10076000FC0110820895FA01D9019C91923089F020
:1007700018F4913031F00895933099F09430C9F025
:100780000895813011F482E01FC0613019F584E0D2
:1007900013C0811102C081E00FC06130D9F483E041
:1007A00013C0811102C084E00FC0611113C082E048
:1007B00003C0813031F483E08C9380819181019773
:1007C00007C0611107C081E08C93808191810196FF
:1007D00091838083089587E690E09093C50080938D
:1007E000C400E1ECF0E080818861808386E0809342
:1007F000C20080818068808308959091C00095FF39
:10080000FCCF8093C60008950F931F93CF93DF937F
:100810008C01EB012881398137FD04C08BE20E94F5
:10082000FD030AC08DE20E94FD03288139813195C4
:100830002195310939832883288139812D593F4FEA
:10084000273C310518F480E30E94FD03E8018991FB
:10085000882319F00E94FD03FACFDF91CF911F91F9
:100860000F91089590ED980F81E09A3008F080E0A4
:100870000895CF93DF93CDB7DEB727970FB6F894DF
:10088000DEBF0FBECDBF0E94FB0181E00E94E601EA
:100890000E948F00529A539A85B1886185B90E944F
:1008A0009203789488B1806388B9439A3B9A0E94F6
:1008B0005E030E9410030E94EB0389E0582E95E02E
:1008C000E92EF12C2AE0A22EB12C3EE1C32E31E01C
:1008D000D32E45E0942E8E010F5F1F4F8824839402
:1008E00054E6752E6AE0662E4398CE0106960E9465
:1008F00037038E819F8191110AC029E0829FC00138
:100900001124B7010E942205605E7F4F22C02AE0B9
:10091000829FC0011124059690933801809337017E
:100920002091370130913801529EC001539E900DA5
:100930001124B7010E942205605C7E4F709338013C
:10094000609337018091370190913801B5010E9481
:100950002205709338016093370120913501309161
:100960003601809137019091380128173907D1F06D
:100970000E94530080913701909138019F938F938B
:10098000DF92CF921F929F921F930F930E944A056E
:1009900067E371E0C8010E9404040FB6F894DEBF5B
:1009A0000FBECDBF809137019091380190933601F1
:1009B000809335011B9B80923C011C9B10923C0153
:1009C00080913201813099F540913E0180913F0143
:1009D0006091400150E040535109749E9001759E12
:1009E000300D112490E0C097689EA001699E500DC3
:1009F0001124240F351F862F90E0C097280F391F30
:100A0000309331012093300180913D018D3259F4B2
:100A10008091300190913101919581959109909348
:100A20003101809330010E94530010923201809175
:100A30003B01813021F40E948F0010923B010E9403
:100A4000D40052CF97FB072E16F4009407D077FD01
:100A500009D00E94360507FC05D03EF4909581959B
:100A60009F4F0895709561957F4F0895AA1BBB1BFA
:100A700051E107C0AA1FBB1FA617B70710F0A61B9E
:100A8000B70B881F991F5A95A9F780959095BC01BF
:100A9000CD010895AEE0B0E0E0E5F5E00C9400088B
:100AA0000D891E898F89988D26E02C831A830983EE
:100AB00097FF02C080E090E801979E838D83AE018E
:100AC000455E5F4F698D7A8DCE0101960E947A0551
:100AD0004D815E8157FD0AC02F813885421753072B
:100AE0000CF49A01F801E20FF31F10822E96E4E055
:100AF0000C941C08ACE0B0E0E0E8F5E00C94F207E0
:100B00007C016B018A01FC0117821682838181FFBF
:100B1000BDC1CE0101964C01F7019381F60193FD11
:100B2000859193FF81916F01882309F4ABC18532D0
:100B300039F493FD859193FF81916F01853229F4FA
:100B4000B70190E00E946207E7CF512C312C20E0E2
:100B50002032A0F48B3269F030F4803259F08332C5
:100B600069F420612CC08D3239F0803339F4216072
:100B700026C02260246023C0286021C027FD27C032
:100B800030ED380F3A3078F426FF06C0FAE05F9E69
:100B9000300D1124532E13C08AE0389E300D1124DD
:100BA000332E20620CC08E3221F426FD6BC12064EE
:100BB00006C08C3611F4206802C0883641F4F60174
:100BC00093FD859193FF81916F018111C1CF982F82
:100BD0009F7D9554933028F40C5F1F4FFFE3F983FA
:100BE0000DC0833631F0833771F0833509F05BC077
:100BF00022C0F801808189830E5F1F4F44244394F3
:100C0000512C540115C03801F2E06F0E711CF8012F
:100C1000A080B18026FF03C0652D70E002C06FEF99
:100C20007FEFC5012C870E9457072C0183012C857B
:100C30002F77222E17C03801F2E06F0E711CF801D9
:100C4000A080B18026FF03C0652D70E002C06FEF69
:100C50007FEFC5012C870E944C072C012C85206852
:100C6000222E830123FC1BC0832D90E048165906D9
:100C7000B0F4B70180E290E00E9462073A94F4CFAA
:100C8000F50127FC859127FE81915F01B70190E076
:100C90000E94620731103A94F1E04F1A5108411452
:100CA000510471F7E5C0843611F0893639F5F80141
:100CB00027FF07C060817181828193810C5F1F4F84
:100CC00008C060817181882777FD8095982F0E5F1D
:100CD0001F4F2F76B22E97FF09C090958095709583
:100CE00061957F4F8F4F9F4F2068B22E2AE030E0F2
:100CF000A4010E949407A82EA81844C0853729F49F
:100D00002F7EB22E2AE030E025C0F22FF97FBF2ED1
:100D10008F36C1F018F4883579F0B4C0803719F0F7
:100D2000883721F0AFC02F2F2061B22EB4FE0DC046
:100D30008B2D8460B82E09C024FF0AC09F2F9660B7
:100D4000B92E06C028E030E005C020E130E002C046
:100D500020E132E0F801B7FE07C060817181828135
:100D600093810C5F1F4F06C06081718180E090E02D
:100D70000E5F1F4FA4010E949407A82EA818FB2DF8
:100D8000FF77BF2EB6FE0BC02B2D2E7FA51450F47F
:100D9000B4FE0AC0B2FC08C02B2D2E7E05C07A2CF2
:100DA0002B2D03C07A2C01C0752C24FF0DC0FE0131
:100DB000EA0DF11D8081803311F4297E09C022FFE4
:100DC00006C07394739404C0822F867809F07394DC
:100DD00023FD13C020FF06C05A2C731418F4530CC3
:100DE0005718732C731468F4B70180E290E02C87D5
:100DF0000E94620773942C85F5CF731410F4371892
:100E000001C0312C24FF12C0B70180E390E02C8791
:100E10000E9462072C8522FF17C021FF03C088E5CE
:100E200090E002C088E790E0B7010CC0822F86787E
:100E300059F021FD02C080E201C08BE227FD8DE266
:100E4000B70190E00E946207A51438F4B70180E36F
:100E500090E00E9462075A94F7CFAA94F401EA0D39
:100E6000F11D8081B70190E00E946207A110F5CFCB
:100E7000332009F451CEB70180E290E00E9462076E
:100E80003A94F6CFF7018681978102C08FEF9FEFEA
:100E90002C96E2E10C940E08FC0105906150704024
:100EA0000110D8F7809590958E0F9F1F0895FC0133
:100EB0006150704001900110D8F7809590958E0F89
:100EC0009F1F08950F931F93CF93DF93182F092F20
:100ED000EB018B8181FD03C08FEF9FEF20C082FF6C
:100EE00010C04E815F812C813D81421753077CF4F5
:100EF000E881F9819F012F5F3F4F39832883108359
:100F000006C0E885F985812F0995892B29F72E815F
:100F10003F812F5F3F4F3F832E83812F902FDF91A3
:100F2000CF911F910F910895FA01AA27283051F10E
:100F3000203181F1E8946F936E7F6E5F7F4F8F4F0A
:100F40009F4FAF4FB1E03ED0B4E03CD0670F781F69
:100F5000891F9A1FA11D680F791F8A1F911DA11D4E
:100F60006A0F711D811D911DA11D20D009F4689487
:100F70003F912AE0269F11243019305D3193DEF62F
:100F8000CF010895462F4770405D4193B3E00FD0E5
:100F9000C9F7F6CF462F4F70405D4A3318F0495DD0
:100FA00031FD4052419302D0A9F7EACFB4E0A695B3
:100FB0009795879577956795BA95C9F700976105D5
:100FC000710508959B01AC010A2E0694579547952B
:100FD00037952795BA95C9F7620F731F841F951F20
:100FE000A01D08952F923F924F925F926F927F9231
:100FF0008F929F92AF92BF92CF92DF92EF92FF9229
:101000000F931F93CF93DF93CDB7DEB7CA1BDB0BD4
:101010000FB6F894DEBF0FBECDBF09942A88398879
:1010200048885F846E847D848C849B84AA84B98480
:10103000C884DF80EE80FD800C811B81AA81B9818C
:10104000CE0FD11D0FB6F894DEBF0FBECDBFED01A0
:061050000895F894FFCFA3
:1010560001503C54656D703A256420526D743A25F2
:1010660064004C6F773A256420484947483A25641E
:10107600004C4F573A256420486967683A25640052
:00000001FF
